{
  "contractName": "AtomicSwap",
  "abi": [
    {
      "constant": true,
      "inputs": [
        {
          "name": "",
          "type": "bytes32"
        }
      ],
      "name": "swaps",
      "outputs": [
        {
          "name": "initTimestamp",
          "type": "uint256"
        },
        {
          "name": "refundTime",
          "type": "uint256"
        },
        {
          "name": "hashedSecret",
          "type": "bytes32"
        },
        {
          "name": "secret",
          "type": "bytes32"
        },
        {
          "name": "initiator",
          "type": "address"
        },
        {
          "name": "participant",
          "type": "address"
        },
        {
          "name": "value",
          "type": "uint256"
        },
        {
          "name": "emptied",
          "type": "bool"
        },
        {
          "name": "state",
          "type": "uint8"
        }
      ],
      "payable": false,
      "stateMutability": "view",
      "type": "function"
    },
    {
      "inputs": [],
      "payable": false,
      "stateMutability": "nonpayable",
      "type": "constructor"
    },
    {
      "anonymous": false,
      "inputs": [
        {
          "indexed": false,
          "name": "_refundTime",
          "type": "uint256"
        }
      ],
      "name": "Refunded",
      "type": "event"
    },
    {
      "anonymous": false,
      "inputs": [
        {
          "indexed": false,
          "name": "_redeemTime",
          "type": "uint256"
        }
      ],
      "name": "Redeemed",
      "type": "event"
    },
    {
      "anonymous": false,
      "inputs": [
        {
          "indexed": false,
          "name": "_initiator",
          "type": "address"
        },
        {
          "indexed": false,
          "name": "_participator",
          "type": "address"
        },
        {
          "indexed": false,
          "name": "_hashedSecret",
          "type": "bytes32"
        },
        {
          "indexed": false,
          "name": "_value",
          "type": "uint256"
        }
      ],
      "name": "Participated",
      "type": "event"
    },
    {
      "anonymous": false,
      "inputs": [
        {
          "indexed": false,
          "name": "_initTimestamp",
          "type": "uint256"
        },
        {
          "indexed": false,
          "name": "_refundTime",
          "type": "uint256"
        },
        {
          "indexed": false,
          "name": "_hashedSecret",
          "type": "bytes32"
        },
        {
          "indexed": false,
          "name": "_participant",
          "type": "address"
        },
        {
          "indexed": false,
          "name": "_initiator",
          "type": "address"
        },
        {
          "indexed": false,
          "name": "_funds",
          "type": "uint256"
        }
      ],
      "name": "Initiated",
      "type": "event"
    },
    {
      "constant": false,
      "inputs": [
        {
          "name": "_refundTime",
          "type": "uint256"
        },
        {
          "name": "_hashedSecret",
          "type": "bytes32"
        },
        {
          "name": "_participant",
          "type": "address"
        }
      ],
      "name": "initiate",
      "outputs": [],
      "payable": true,
      "stateMutability": "payable",
      "type": "function"
    },
    {
      "constant": false,
      "inputs": [
        {
          "name": "_refundTime",
          "type": "uint256"
        },
        {
          "name": "_hashedSecret",
          "type": "bytes32"
        },
        {
          "name": "_initiator",
          "type": "address"
        }
      ],
      "name": "participate",
      "outputs": [],
      "payable": true,
      "stateMutability": "payable",
      "type": "function"
    },
    {
      "constant": false,
      "inputs": [
        {
          "name": "_secret",
          "type": "bytes32"
        },
        {
          "name": "_hashedSecret",
          "type": "bytes32"
        }
      ],
      "name": "redeem",
      "outputs": [],
      "payable": false,
      "stateMutability": "nonpayable",
      "type": "function"
    },
    {
      "constant": false,
      "inputs": [
        {
          "name": "_hashedSecret",
          "type": "bytes32"
        }
      ],
      "name": "refund",
      "outputs": [],
      "payable": false,
      "stateMutability": "nonpayable",
      "type": "function"
    }
  ],
  "bytecode": "0x6060604052341561000f57600080fd5b610e588061001e6000396000f30060606040526004361061006d576000357c0100000000000000000000000000000000000000000000000000000000900463ffffffff1680631aa02853146100725780637249fbb6146100b6578063ae052147146100dd578063b31597ad14610121578063eb84e7f214610155575b600080fd5b6100b460048080359060200190919080356000191690602001909190803573ffffffffffffffffffffffffffffffffffffffff16906020019091905050610242565b005b34156100c157600080fd5b6100db6004808035600019169060200190919050506104ca565b005b61011f60048080359060200190919080356000191690602001909190803573ffffffffffffffffffffffffffffffffffffffff1690602001909190505061078a565b005b341561012c57600080fd5b61015360048080356000191690602001909190803560001916906020019091905050610a3f565b005b341561016057600080fd5b61017a600480803560001916906020019091905050610d84565b604051808a8152602001898152602001886000191660001916815260200187600019166000191681526020018673ffffffffffffffffffffffffffffffffffffffff1673ffffffffffffffffffffffffffffffffffffffff1681526020018573ffffffffffffffffffffffffffffffffffffffff1673ffffffffffffffffffffffffffffffffffffffff1681526020018481526020018315151515815260200182600281111561022657fe5b60ff168152602001995050505050505050505060405180910390f35b816000600281111561025057fe5b600080836000191660001916815260200190815260200160002060070160019054906101000a900460ff16600281111561028657fe5b14151561029257600080fd5b836000808560001916600019168152602001908152602001600020600101819055504260008085600019166000191681526020019081526020016000206000018190555033600080856000191660001916815260200190815260200160002060050160006101000a81548173ffffffffffffffffffffffffffffffffffffffff021916908373ffffffffffffffffffffffffffffffffffffffff16021790555081600080856000191660001916815260200190815260200160002060040160006101000a81548173ffffffffffffffffffffffffffffffffffffffff021916908373ffffffffffffffffffffffffffffffffffffffff1602179055503460008085600019166000191681526020019081526020016000206006018190555082600080856000191660001916815260200190815260200160002060020181600019169055506002600080856000191660001916815260200190815260200160002060070160016101000a81548160ff0219169083600281111561041057fe5b02179055507fa8506a11ec0098769a3a6fca95c3909827ae056c93e71bdc9af512a6831e06c482338534604051808573ffffffffffffffffffffffffffffffffffffffff1673ffffffffffffffffffffffffffffffffffffffff1681526020018473ffffffffffffffffffffffffffffffffffffffff1673ffffffffffffffffffffffffffffffffffffffff168152602001836000191660001916815260200182815260200194505050505060405180910390a150505050565b80600080826000191660001916815260200190815260200160002060010154600080836000191660001916815260200190815260200160002060000154014211151561051557600080fd5b60001515600080836000191660001916815260200190815260200160002060070160009054906101000a900460ff16151514151561055257600080fd5b60028081111561055e57fe5b600080846000191660001916815260200190815260200160002060070160019054906101000a900460ff16600281111561059457fe5b141561063557600080836000191660001916815260200190815260200160002060050160009054906101000a900473ffffffffffffffffffffffffffffffffffffffff1673ffffffffffffffffffffffffffffffffffffffff166108fc6000808560001916600019168152602001908152602001600020600601549081150290604051600060405180830381858888f19350505050151561063457600080fd5b5b6001600281111561064257fe5b600080846000191660001916815260200190815260200160002060070160019054906101000a900460ff16600281111561067857fe5b141561071957600080836000191660001916815260200190815260200160002060040160009054906101000a900473ffffffffffffffffffffffffffffffffffffffff1673ffffffffffffffffffffffffffffffffffffffff166108fc6000808560001916600019168152602001908152602001600020600601549081150290604051600060405180830381858888f19350505050151561071857600080fd5b5b6001600080846000191660001916815260200190815260200160002060070160006101000a81548160ff0219169083151502179055507f3d2a04f53164bedf9a8a46353305d6b2d2261410406df3b41f99ce6489dc003c426040518082815260200191505060405180910390a15050565b816000600281111561079857fe5b600080836000191660001916815260200190815260200160002060070160019054906101000a900460ff1660028111156107ce57fe5b1415156107da57600080fd5b8360008085600019166000191681526020019081526020016000206001018190555042600080856000191660001916815260200190815260200160002060000181905550826000808560001916600019168152602001908152602001600020600201816000191690555081600080856000191660001916815260200190815260200160002060050160006101000a81548173ffffffffffffffffffffffffffffffffffffffff021916908373ffffffffffffffffffffffffffffffffffffffff16021790555033600080856000191660001916815260200190815260200160002060040160006101000a81548173ffffffffffffffffffffffffffffffffffffffff021916908373ffffffffffffffffffffffffffffffffffffffff1602179055506001600080856000191660001916815260200190815260200160002060070160016101000a81548160ff0219169083600281111561093657fe5b0217905550346000808560001916600019168152602001908152602001600020600601819055507f75501a491c11746724d18ea6e5ac6a53864d886d653da6b846fdecda837cf57660008085600019166000191681526020019081526020016000206000015485858533346040518087815260200186815260200185600019166000191681526020018473ffffffffffffffffffffffffffffffffffffffff1673ffffffffffffffffffffffffffffffffffffffff1681526020018373ffffffffffffffffffffffffffffffffffffffff1673ffffffffffffffffffffffffffffffffffffffff168152602001828152602001965050505050505060405180910390a150505050565b8082816000191660028260006040516020015260405180826000191660001916815260200191505060206040518083038160008661646e5a03f11515610a8457600080fd5b50506040518051905060001916141515610a9d57600080fd5b6000808360001916600019168152602001908152602001600020600101546000808460001916600019168152602001908152602001600020600001540142101515610ae757600080fd5b60001515600080846000191660001916815260200190815260200160002060070160009054906101000a900460ff161515141515610b2457600080fd5b600280811115610b3057fe5b600080856000191660001916815260200190815260200160002060070160019054906101000a900460ff166002811115610b6657fe5b1415610c0757600080846000191660001916815260200190815260200160002060040160009054906101000a900473ffffffffffffffffffffffffffffffffffffffff1673ffffffffffffffffffffffffffffffffffffffff166108fc6000808660001916600019168152602001908152602001600020600601549081150290604051600060405180830381858888f193505050501515610c0657600080fd5b5b60016002811115610c1457fe5b600080856000191660001916815260200190815260200160002060070160019054906101000a900460ff166002811115610c4a57fe5b1415610ceb57600080846000191660001916815260200190815260200160002060050160009054906101000a900473ffffffffffffffffffffffffffffffffffffffff1673ffffffffffffffffffffffffffffffffffffffff166108fc6000808660001916600019168152602001908152602001600020600601549081150290604051600060405180830381858888f193505050501515610cea57600080fd5b5b6001600080856000191660001916815260200190815260200160002060070160006101000a81548160ff0219169083151502179055507f82498456531a1065f689ba348ce20bda781238c424cf36748dd40bc282831e03426040518082815260200191505060405180910390a1836000808560001916600019168152602001908152602001600020600301816000191690555050505050565b60006020528060005260406000206000915090508060000154908060010154908060020154908060030154908060040160009054906101000a900473ffffffffffffffffffffffffffffffffffffffff16908060050160009054906101000a900473ffffffffffffffffffffffffffffffffffffffff16908060060154908060070160009054906101000a900460ff16908060070160019054906101000a900460ff169050895600a165627a7a72305820f451dcb8c020e9171c4444347970429e6f49bc68b2ab5123db09b704843ea0660029",
  "source": "pragma solidity ^0.4.15;\n\ncontract AtomicSwap {\n\n    enum State { Empty, Initiator, Participant }\n\n    struct Swap {\n        uint initTimestamp;\n        uint refundTime;\n        bytes32 hashedSecret;\n        bytes32 secret;\n        address initiator;\n        address participant;\n        uint256 value;\n        bool emptied;\n        State state;\n    }\n\n    mapping(bytes32 => Swap) public swaps;\n    \n    event Refunded(uint _refundTime);\n    event Redeemed(uint _redeemTime);\n    event Participated(\n        address _initiator, \n        address _participator, \n        bytes32 _hashedSecret,\n        uint256 _value\n    );\n    event Initiated(\n        uint _initTimestamp,\n        uint _refundTime,\n        bytes32 _hashedSecret,\n        address _participant,\n        address _initiator,\n        uint256 _funds\n    );\n\n    function AtomicSwap() public {}\n    \n    modifier isRefundable(bytes32 _hashedSecret) {\n        require(block.timestamp > swaps[_hashedSecret].initTimestamp + swaps[_hashedSecret].refundTime);\n        require(swaps[_hashedSecret].emptied == false);\n        _;\n    }\n    \n    modifier isRedeemable(bytes32 _hashedSecret, bytes32 _secret) {\n        require(sha256(_secret) == _hashedSecret);\n        require(block.timestamp < swaps[_hashedSecret].initTimestamp + swaps[_hashedSecret].refundTime);\n        require(swaps[_hashedSecret].emptied == false);\n        _;\n    }\n    \n    modifier isInitiator(bytes32 _hashedSecret) {\n        require(msg.sender == swaps[_hashedSecret].initiator);\n        _;\n    }\n    \n    modifier isNotInitiated(bytes32 _hashedSecret) {\n        require(swaps[_hashedSecret].state == State.Empty);\n        _;\n    }\n\n    function initiate (uint _refundTime,bytes32 _hashedSecret,address _participant)\n        public\n        payable \n        isNotInitiated(_hashedSecret)\n    {\n        swaps[_hashedSecret].refundTime = _refundTime;\n        swaps[_hashedSecret].initTimestamp = block.timestamp;\n        swaps[_hashedSecret].hashedSecret = _hashedSecret;\n        swaps[_hashedSecret].participant = _participant;\n        swaps[_hashedSecret].initiator = msg.sender;\n        swaps[_hashedSecret].state = State.Initiator;\n        swaps[_hashedSecret].value = msg.value;\n        Initiated(\n            swaps[_hashedSecret].initTimestamp,\n            _refundTime,\n            _hashedSecret,\n            _participant,\n            msg.sender,\n            msg.value\n        );\n    }\n\n    function participate(uint _refundTime, bytes32 _hashedSecret,address _initiator)\n        public\n        payable \n        isNotInitiated(_hashedSecret)\n    {\n        swaps[_hashedSecret].refundTime = _refundTime;\n        swaps[_hashedSecret].initTimestamp = block.timestamp;\n        swaps[_hashedSecret].participant = msg.sender;\n        swaps[_hashedSecret].initiator = _initiator;\n        swaps[_hashedSecret].value = msg.value;\n        swaps[_hashedSecret].hashedSecret = _hashedSecret;\n        swaps[_hashedSecret].state = State.Participant;\n        Participated(_initiator,msg.sender,_hashedSecret,msg.value);\n    }\n    \n    function redeem(bytes32 _secret, bytes32 _hashedSecret)\n        public\n        isRedeemable(_hashedSecret, _secret)\n    {\n        if (swaps[_hashedSecret].state == State.Participant) {\n            swaps[_hashedSecret].initiator.transfer(swaps[_hashedSecret].value);\n        }\n        if (swaps[_hashedSecret].state == State.Initiator) {\n            swaps[_hashedSecret].participant.transfer(swaps[_hashedSecret].value);\n        }\n        swaps[_hashedSecret].emptied = true;\n        Redeemed(block.timestamp);\n        swaps[_hashedSecret].secret = _secret;\n    }\n\n    function refund(bytes32 _hashedSecret)\n        public\n        isRefundable(_hashedSecret) \n    {\n        if (swaps[_hashedSecret].state == State.Participant) {\n            swaps[_hashedSecret].participant.transfer(swaps[_hashedSecret].value);\n        }\n        if (swaps[_hashedSecret].state == State.Initiator) {\n            swaps[_hashedSecret].initiator.transfer(swaps[_hashedSecret].value);\n        }\n        swaps[_hashedSecret].emptied = true;\n        Refunded(block.timestamp);\n    }\n}",
  "sourcePath": "/Users/glendc/Projects/AltCoinExchange/ethatomicswap/contracts/AtomicSwap.sol",
  "compiler": {
    "name": "solc",
    "version": "0.4.19+commit.c4cbbb05.Emscripten.clang"
  },
  "schemaVersion": "2.0.0",
  "updatedAt": "2018-03-05T21:40:11.700Z"
}